:020000040000fa
:080000000002040000000000f2
:020000040000fa
:040008007a05000075
:020000040000fa
:04000c00ac04000040
:020000040000fa
:04001000c604000022
:020000040000fa
:040014009204000052
:020000040000fa
:04001800e004000000
:020000040000fa
:04001c007a05000061
:020000040000fa
:040020007a0500005d
:020000040000fa
:040024007a05000059
:020000040000fa
:040028007a05000055
:020000040000fa
:04002c007a05000051
:020000040000fa
:040030007a0500004d
:020000040000fa
:0400340004030000c1
:020000040000fa
:040038007a05000045
:020000040000fa
:04003c007a05000041
:020000040000fa
:040040007a0500003d
:020000040000fa
:040044007a05000039
:020000040000fa
:040048007a05000035
:020000040000fa
:04004c007a05000031
:020000040000fa
:040050007a0500002d
:020000040000fa
:040054007a05000029
:020000040000fa
:040058007a05000025
:020000040000fa
:04005c007a05000021
:020000040000fa
:040060007a0500001d
:020000040000fa
:040064007a05000019
:020000040000fa
:040068007a05000015
:020000040000fa
:04006c007a05000011
:020000040000fa
:040070007a0500000d
:020000040000fa
:04007400fa0400008a
:020000040000fa
:040078007a05000005
:020000040000fa
:04007c007a05000001
:020000040000fa
:040080007a050000fd
:020000040000fa
:040084007a050000f9
:020000040000fa
:040088007a050000f5
:020000040000fa
:04008c007a050000f1
:020000040000fa
:040090007a050000ed
:020000040000fa
:040094007a050000e9
:020000040000fa
:04009800360300002b
:020000040000fa
:04009c007a050000e1
:020000040000fa
:0400a0007a050000dd
:020000040000fa
:0400a4007a050000d9
:020000040000fa
:0400a8007a050000d5
:020000040000fa
:0400ac007a050000d1
:020000040000fa
:0400b0007a050000cd
:020000040000fa
:0400b4007a050000c9
:020000040000fa
:0400b8007a050000c5
:020000040000fa
:0400bc007a050000c1
:020000040000fa
:0400c0007a050000bd
:020000040000fa
:0400c4007a050000b9
:020000040000fa
:0400c8007a050000b5
:020000040000fa
:0400cc007a050000b1
:020000040000fa
:0400d0007a050000ad
:020000040000fa
:0400d4007a050000a9
:020000040000fa
:0400d8007a050000a5
:020000040000fa
:0400dc007a050000a1
:020000040000fa
:0400e0007a0500009d
:020000040000fa
:0400e4007a05000099
:020000040000fa
:0400e8007a05000095
:020000040000fa
:0400ec007a05000091
:020000040000fa
:0400f0007a0500008d
:020000040000fa
:0400f4007a05000089
:020000040000fa
:0400f8007a05000085
:020000040000fa
:0400fc007a05000081
:020000040000fa
:040100007a0500007c
:020000040000fa
:040104007a05000078
:020000040000fa
:040108007a05000074
:020000040000fa
:04010c007a05000070
:020000040000fa
:040110007a0500006c
:020000040000fa
:040114007a05000068
:020000040000fa
:040118007a05000064
:020000040000fa
:04011c007a05000060
:020000040000fa
:040120007604000061
:020000040000fa
:040124007a05000058
:020000040000fa
:040128007a05000054
:020000040000fa
:04012c007a05000050
:020000040000fa
:040130007a0500004c
:020000040000fa
:040134007a05000048
:020000040000fa
:040138007a05000044
:020000040000fa
:04013c007a05000040
:020000040000fa
:040140007a0500003c
:020000040000fa
:040144007a05000038
:020000040000fa
:040148007a05000034
:020000040000fa
:04014c007a05000030
:020000040000fa
:040150007a0500002c
:020000040000fa
:040154007a05000028
:020000040000fa
:040158007a05000024
:020000040000fa
:04015c007a05000020
:020000040000fa
:040160007a0500001c
:020000040000fa
:040164007a05000018
:020000040000fa
:040168007a05000014
:020000040000fa
:04016c007a05000010
:020000040000fa
:040170007a0500000c
:020000040000fa
:040174007a05000008
:020000040000fa
:040178007a05000004
:020000040000fa
:04017c007a05000000
:020000040000fa
:040180007a050000fc
:020000040000fa
:040184007a050000f8
:020000040000fa
:040188007a050000f4
:020000040000fa
:04018c007a050000f0
:020000040000fa
:040190007a050000ec
:020000040000fa
:040194007a050000e8
:020000040000fa
:040198007a050000e4
:020000040000fa
:04019c007a050000e0
:020000040000fa
:0401a0007a050000dc
:020000040000fa
:0401a4007a050000d8
:020000040000fa
:0401a8007a050000d4
:020000040000fa
:0401ac007a050000d0
:020000040000fa
:0401b0007a050000cc
:020000040000fa
:0401b4007a050000c8
:020000040000fa
:0401b8007a050000c4
:020000040000fa
:0401bc007a050000c0
:020000040000fa
:0401c0007a050000bc
:020000040000fa
:0401c4007a050000b8
:020000040000fa
:0401c8007a050000b4
:020000040000fa
:0401cc007a050000b0
:020000040000fa
:0401d0007a050000ac
:020000040000fa
:0401d4007a050000a8
:020000040000fa
:0401d8007a050000a4
:020000040000fa
:0401dc007a050000a0
:020000040000fa
:0401e0007a0500009c
:020000040000fa
:0401e4007a05000098
:020000040000fa
:0401e8007a05000094
:020000040000fa
:0401ec007a05000090
:020000040000fa
:0401f0007a0500008c
:020000040000fa
:0401f4007a05000088
:020000040000fa
:0401f8007a05000084
:020000040000fa
:0401fc007a05000080
:020000040000fa
:040208007a05000073
:020000040000fa
:04020c007a0500006f
:020000040000fa
:040210007a0500006b
:020000040000fa
:040214007a05000067
:020000040000fa
:040218007a05000063
:020000040000fa
:04021c007a0500005f
:020000040000fa
:040220007a0500005b
:020000040000fa
:040224007a05000057
:020000040000fa
:040228007a05000053
:020000040000fa
:04022c007a0500004f
:020000040000fa
:040230007a0500004b
:020000040000fa
:040234007a05000047
:020000040000fa
:040238007a05000043
:020000040000fa
:04023c007a0500003f
:020000040000fa
:040240007a0500003b
:020000040000fa
:040244007a05000037
:020000040000fa
:040248007a05000033
:020000040000fa
:04024c007a0500002f
:020000040000fa
:040250007a0500002b
:020000040000fa
:040254007a05000027
:020000040000fa
:040258007a05000023
:020000040000fa
:04025c007a0500001f
:020000040000fa
:040260007a0500001b
:020000040000fa
:040264007a05000017
:020000040000fa
:040268007a05000013
:020000040000fa
:04026c007a0500000f
:020000040000fa
:040270007a0500000b
:020000040000fa
:040274007a05000007
:020000040000fa
:040278007a05000003
:020000040000fa
:04027c007a050000ff
:020000040000fa
:040280007a050000fb
:020000040000fa
:040284007a050000f7
:020000040000fa
:040288007a050000f3
:020000040000fa
:04028c007a050000ef
:020000040000fa
:040290007a050000eb
:020000040000fa
:040294007a050000e7
:020000040000fa
:040298007a050000e3
:020000040000fa
:04029c007a050000df
:020000040000fa
:0402a0007a050000db
:020000040000fa
:0402a4007a050000d7
:020000040000fa
:0402a8007a050000d3
:020000040000fa
:0402ac007a050000cf
:020000040000fa
:0402b0007a050000cb
:020000040000fa
:0402b4007a050000c7
:020000040000fa
:0402b8007a050000c3
:020000040000fa
:0402bc007a050000bf
:020000040000fa
:0402c0007a050000bb
:020000040000fa
:0402c4007a050000b7
:020000040000fa
:0402c8007a050000b3
:020000040000fa
:0402cc007a050000af
:020000040000fa
:0402d0007a050000ab
:020000040000fa
:0402d4007a050000a7
:020000040000fa
:0402d8007a050000a3
:020000040000fa
:0402dc007a0500009f
:020000040000fa
:0402e0007a0500009b
:020000040000fa
:0402e4007a05000097
:020000040000fa
:0402e8007a05000093
:020000040000fa
:0402ec007a0500008f
:020000040000fa
:0402f0007a0500008b
:020000040000fa
:0402f4007a05000087
:020000040000fa
:0402f8007a05000083
:020000040000fa
:0402fc007a0500007f
:020000040000fa
:040300007a0500007a
:020000040000fa
:040304007a05000076
:020000040000fa
:040308007a05000072
:020000040000fa
:04030c007a0500006e
:020000040000fa
:040310007a0500006a
:020000040000fa
:040314007a05000066
:020000040000fa
:040318007a05000062
:020000040000fa
:04031c007a0500005e
:020000040000fa
:040320007a0500005a
:020000040000fa
:040324007a05000056
:020000040000fa
:040328007a05000052
:020000040000fa
:04032c007a0500004e
:020000040000fa
:040330007a0500004a
:020000040000fa
:040334007a05000046
:020000040000fa
:040338007a05000042
:020000040000fa
:04033c007a0500003e
:020000040000fa
:040340007a0500003a
:020000040000fa
:040344007a05000036
:020000040000fa
:040348007a05000032
:020000040000fa
:04034c007a0500002e
:020000040000fa
:040350007a0500002a
:020000040000fa
:040354007a05000026
:020000040000fa
:040358007a05000022
:020000040000fa
:04035c007a0500001e
:020000040000fa
:040360007a0500001a
:020000040000fa
:040364007a05000016
:020000040000fa
:040368007a05000012
:020000040000fa
:04036c007a0500000e
:020000040000fa
:040370007a0500000a
:020000040000fa
:040374007a05000006
:020000040000fa
:040378007a05000002
:020000040000fa
:04037c007a050000fe
:020000040000fa
:040380007a050000fa
:020000040000fa
:040384007a050000f6
:020000040000fa
:040388007a050000f2
:020000040000fa
:04038c007a050000ee
:020000040000fa
:040390007a050000ea
:020000040000fa
:040394007a050000e6
:020000040000fa
:040398007a050000e2
:020000040000fa
:04039c007a050000de
:020000040000fa
:0403a0007a050000da
:020000040000fa
:0403a4007a050000d6
:020000040000fa
:0403a8007a050000d2
:020000040000fa
:0403ac007a050000ce
:020000040000fa
:0403b0007a050000ca
:020000040000fa
:0403b4007a050000c6
:020000040000fa
:0403b8007a050000c2
:020000040000fa
:0403bc007a050000be
:020000040000fa
:0403c0007a050000ba
:020000040000fa
:0403c4007a050000b6
:020000040000fa
:0403c8007a050000b2
:020000040000fa
:0403cc007a050000ae
:020000040000fa
:0403d0007a050000aa
:020000040000fa
:0403d4007a050000a6
:020000040000fa
:0403d8007a050000a2
:020000040000fa
:0403dc007a0500009e
:020000040000fa
:0403e0007a0500009a
:020000040000fa
:0403e4007a05000096
:020000040000fa
:0403e8007a05000092
:020000040000fa
:0403ec007a0500008e
:020000040000fa
:0403f0007a0500008a
:020000040000fa
:0403f4007a05000086
:020000040000fa
:0403f8007a05000082
:020000040000fa
:0403fc007a0500007e
:020000040000fa
:100400004f6321000e7f22000e01880000000000d3
:10041000000020000000e000020032000001200087
:1004200020028800140007000a0207000000e00014
:1004300003003a0040612a0001002000020037005a
:100440000000200001002000810f70000100320038
:1004500014000700000020000000e000020032004d
:100460000000020000000000988702000000000069
:100470000040da000000fe004440a9000011200006
:100480000000e000030032000020200090018800fe
:100490004440a800000006008a1f78008b1f7800e7
:1004a00000000600a1028800800478000000eb0034
:1004b0001f003700e284440054a0b4009905ba003c
:1004c000e284440054a0b4009906ba00e2844400d7
:1004d00054a0b4000006eb00476fde00fd07b20039
:1004e000ae018800636ce10003003a00eaff0700f8
:1004f0000000eb000e003700606ce10008003a00dd
:10050000004deb000a05e800020039003420ec0041
:100510000af0a0008b05e900f9ff3e000400370057
:100520006168e100010032000086eb000b0007006b
:1005300019c7ba001905ba000e04e00003003a001a
:100540000a00e000dbff3a0000000600fe07b200f0
:10055000ae0288008a047800f5ff37000cd0a300b3
:10056000e20f4d001c00390089027800354dba00b9
:100570000a05e800020039003420ec000af0a0006f
:100580008b05e9000f003200254dba000a05e8008e
:10059000020039003420ec000af0a0008b05e900cd
:1005a000080032000c00e0000600320015cdba0051
:1005b0000a05e800020039003420ec000af0a0002f
:1005c0008b05e9008984e80054a0b4000b00e0002a
:1005d000e2ff3a00000006009902ba00055d7800cb
:1005e0008b05e900f7ff3200c82ade00055d7800c0
:1005f0008b05e900f3ff32000c00e000f1ff320050
:1006000019ddba00eeff37003600f800809fbe000b
:10061000829fbe00849fbe00869fbe003200f8000d
:100620003400f80010002000a00188000020200005
:10063000900188000000fa0061450700304080000a
:10064000f33707008460a9000080fa003400f90045
:100650003200f9004f03be004f02be004f01be0042
:100660004f00be003600f900004006003600f800da
:10067000809fbe00829fbe00849fbe00869fbe00fa
:10068000889fbe003200f8003400f80010002000ff
:10069000a001880000202000900188000000fa00de
:1006a000355107000000ea00cf80de004a02070053
:1006b00050408800614088005040800061408000c8
:1006c000020c2000038423009b020700020020008c
:1006d00003182400980207000002be00304080008a
:1006e000e0b0900050b090000001be000400be00d9
:1006f000910207000002be0030408000c0b09000b0
:1007000030b090000001be000400be00530107009d
:10071000504088006140880054408000654080005f
:1007200050408000614080000001be000400be0017
:100730008102070090408800a1408800944080001a
:10074000a540800050408000614080000001be0054
:100750000400be0078020700b0408800c140880055
:10076000b4408000c540800050408000614080005f
:100770000001be000400be006f020700d0408800e8
:10078000e140880044fe840055fe8400d040800093
:10079000e14080000001be000400be0066020700c8
:1007a0000004be0024fe840035fe8400b0408000ba
:1007b000c14080000001be000400be005e020700d0
:1007c0000001be000800be00240107000004be00b6
:1007d00004fe840015fe840090408000a14080004b
:1007e0000001be000400be00530207000001be006d
:1007f0000800be00190107000004be00e4fd8400eb
:10080000f5fd840050408000614080000001be0082
:100810000400be00480207000001be000800be0040
:100820000e0107000002be00c0fd8400d1fd84005f
:100830000001be000400be0008010700f04088006f
:10084000014188003040800050ba9000e0ba90002a
:10085000f0408000014180000001be000400be00a5
:10086000350207000002be0030408000a0b89000b2
:1008700010b890000001be000400be002e02070068
:100880000002be0030408000c0b8900030b8900038
:100890000001be000400be00f00007000002be0020
:1008a0003040800080b8900070b090000001be0021
:1008b0000400be00e9000700504088006140880045
:1008c0008780a9000080fa003400f9003200f900a6
:1008d0004f04be004f03be004f02be004f01be00da
:1008e0004f00be003600f900004006003200f8005c
:1008f0003400f800881f780018002000a801880044
:1009000008202000980188004f0478000000fa00b9
:100910008bc0a9000080fa003400f9003200f90011
:10092000004006003200f8003400f800881f78000c
:1009300018002000a80188000820200098018800e5
:100940004f0478000000fa000000000000000000e2
:1009500000000000fcff37003200f8003400f8000f
:10096000881f780018002000a801880008202000b7
:10097000980188004f0478000000fa000000000091
:100980000000000000000000fcff37003200f8000b
:100990003400f800881f780018002000a8018800a3
:1009a00008202000980188004f0478000000fa0019
:1009b000000000000000000000000000fcff370005
:1009c0003200f8003400f800881f7800180020007a
:1009d000a801880008202000980188004f047800b2
:1009e0000000fa000000000000000000000000000d
:1009f000fcff3700809fbe000400fa001017800043
:100a00004500de0061406000004f78001017800054
:100a10004600de006140600010479800101780001b
:100a20004700de006140600020479800901780007a
:100a30004700de0061406000304798003040800091
:100a400050e09100e44f500026003600111780005e
:100a500000082000008060000000e00004003a0070
:100a60003040800011c0b30031f898001a00370000
:100a70001117800000042000008060000000e000ea
:100a800004003a003040800011c0b30001f8980023
:100a90001100370011178000000220000080600064
:100aa0000000e00004003a003040800011c0b300b4
:100ab00011f8980008003700911780000008200006
:100ac000008060000000e00003003a003040800039
:100ad00011c0b30021f89800304080008040eb0046
:100ae00051e099008660a9000080fa004f00be0026
:100af000004006000040da000000fe006900e1004e
:100b0000040035006d00e100030034000002b10074
:100b10000100320000000500100005000a00fa0084
:100b2000e20f50001f003e0080718000e10f500076
:100b300006003200802320004523200023232000cc
:100b4000042320000000e00004003a00802220007e
:100b50004522200023222000042220000600280035
:100b60009403630002003a0007087800140a730037
:100b700013a8a30001003a0013a0a000020078000f
:100b8000050037001388a300feff32003102fb008e
:100b9000840a78000000e9000000e000f9ff3a0054
:100ba0000800370033002000b3bf9f00c0bf9f0084
:100bb000d1bf9f00e2bf9f006a805700b3090700c2
:100bc0006fb99700020078000080fa00000006006c
:100bd000889fbe0080047800907180000000e000d3
:100be00004003a000e0007000084eb000000e00063
:100bf00008003500987180000900e000050032000f
:100c000009004400060007000000e00001003d006c
:100c10000084eb00080078004f04be0000000600ce
:100c2000800078000100e00003003a0040e320006b
:100c300090718800000005000080eb0042632100f5
:100c4000828f500002003e00917188000000eb008e
:100c5000000006000000050003f0a200889fbe000f
:100c60008a9fbe008c1f78001b0107002201330001
:100c70006450e1004f0032006420e1005200320075
:100c800003826c0007003b000905d0000306d0007a
:100c9000820f54000c065d00020039000200320091
:100ca00089017800030678008582550004003d0024
:100cb0000003fd008103fd008502ea008b854200f0
:100cc000840f720002003b0060001000e0801800fa
:100cd0006011b8000005eb007a28e1000a00390035
:100ce00006007800c75ddd00f707b2008780750059
:100cf0002d003700828171000a01780061056000d3
:100d00008180d1000080d3008502e900f9ff3b001b
:100d1000060440008784480002003b006004140081
:100d2000e0841c000988a300070032008a8171005a
:100d300082817100610164008904d1000884d300bc
:100d40008b05e800170037000978a30013003a006c
:100d50000b00e000130034008b05e9000804440098
:100d600089844c000a4474000978a3000d003a00fd
:100d70000b00e000070034008b05e9000804440084
:100d800089844c0001003a000b0020000978a30080
:100d9000f7ff32000001eb00020037008281710092
:100da0000a017800910007000cf0a70001f0a000f4
:100db000da0037006420e10002003a00838f6c0003
:100dc000da0033000801be000200be00d300370085
:100dd000889fbe008a9fbe008c1f7800be0007005f
:100de000c500330003866c006450e1002e00320021
:100df0006420e100330032006150e1002f00320036
:100e00006120e1003100320085855500eb07b0001c
:100e100009002000080420000500370008044400f1
:100e200089844c000a0031000603430087834b008d
:100e30000001530081815b00f8ff33000203be0014
:100e40000800a0000804440089844c00f6ff390023
:100e5000c639dd0083017300010032001300200059
:100e60008904d1000884d3000998a300050032004a
:100e70000800a7000300a0008904d1000884d30063
:100e80008b05e8008904d1000884d3000001eb0041
:100e90000281d2005500070001f0a1000cf0a7006c
:100ea00001f0a0009d0037006420e1009f003200a7
:100eb0000801be000200be00f7ff37006120e1001c
:100ec0009a0032006000b800f3ff370000002000f5
:100ed00001f82700f0ff370014002000da00370087
:100ee000f4ff2f00d80037000001be0065000700a6
:100ef0000470a70003f0a1006509b10016003200dc
:100f00000d0035006828e10006003500f0ff2f00d5
:100f1000f1ff27000300e00013003b000100280060
:100f20000000050000004000818048008502e900c3
:100f3000fcff3a0008003700f88f420002003c0036
:100f40008000eb00000005008100d1000080d3008c
:100f50008502e800fcff3a000300e00002003b00cd
:100f600060001000e0801800000006000001be00d4
:100f7000440007000470a70003f0a10003f8a300d9
:100f800013003a006509b100100032000900350075
:100f90006928e1000200350001002800000005007a
:100fa00000004000818048008502e900fcff3a0013
:100fb00000000600f88f4200050035008100d100d6
:100fc0000080d3008502e800fcff3a000000060024
:100fd0008000eb00000005004f89de0082017800f0
:100fe000b40037006011b800c20037008100200053
:100ff000618055000b003d000b00200061fe2f00ba
:101000000100e1001d003400828171006101640073
:101010008904d1000884d3000000e800faff3a00f8
:101020007100200061006400030070000200600095
:101030000900320061044400e0844c000988a500e6
:10104000050032008b05e8006808e10002003a0064
:101050008904d1000884d300f20f20000258e10077
:1010600005003d00c75ddd00f907b200898075000d
:1010700008007800000006000bf827008b007800bd
:1010800000000500c70ade00f107b200f50fb2004c
:1010900008003200e1cf4200020032000170a000df
:1010a00024000500810f70000100320004080500d3
:1010b00044000500810f700002003a001400050092
:1010c0008502e9000000400081c04800fcff3b00b1
:1010d0000170a000240005000004be00e9ff070025
:1010e0000003be000405be000200be00e5ff0700cd
:1010f000844f7500000006000200be006450e1004d
:10110000050036006420e100020036000968a300f3
:1011100001003a000800be000160a0004f06780000
:101120004f05be004f04be0000000600f0ff2f0078
:10113000f1ff2700f9ff3700889fbe008a9fbe009d
:101140008c1f7800e4ff0700ebff330003866c0080
:101150006450e100240032006420e10027003200e6
:101160006150e100220032006120e10021003200e4
:101170008b854200eb07b1000134b800003ab8009b
:101180000804420089844a00013ab8000030b800df
:101190008880400009014a0004003300000040003c
:1011a00081804800020149008b05e900c909dd0082
:1011b000830170000100320013002000c814de001b
:1011c0004814dd004709de001200b200c808de0046
:1011d0000884700085ff070001f0a1000cf0a70053
:1011e00001f0a000cdff37006120e100cfff320009
:1011f0000801be000200be00f7ff37006150e100a9
:10120000fcff3a00c9ff37006022b8000602200048
:101210000000d0008180d2000482d2008582d200fa
:101220000000a0000202520083825a000300310035
:101230000202420083824a000000a1000603e90086
:10124000f3ff3a0000000600889fbe008a9fbe00a0
:10125000841f7800a0ff07004f00780011003300c2
:10126000f0ff2f00838f6c0006003b000405650033
:101270000a00a7000800370009f0a60010002000af
:1012800008003700820f5400838f5c000300390090
:101290001000200001003e000000200009f0a7001f
:1012a0000000ea004f05be004f04be000000e00051
:1012b00000000600881f7800030478000300e000a7
:1012c00007003d0060001000e08018006001190078
:1012d000e081190002003b0001f02d0003003700ff
:1012e0000400070008f0a70001f0a0004f047800f8
:1012f00000000600889fbe008a9fbe00008270002a
:101300000402710004827100260032000004be0055
:101310000200be006011b8006b0920009502200099
:101320000182cf000a0039000541b1000082cf00e0
:10133000070039000541b1000982cf0004003900df
:101340000541b1000882cf00010039000541b1001c
:1013500005425200120032000a003b0082817100f7
:10136000610164008100d1000080d3008984d30032
:101370000884d3008b05e8000442e800f7ff3a0038
:10138000070037000804440089844c00000048002e
:10139000818048008b05e9000442e900f9ff3a002a
:1013a00012ff07004f05be004f04be0000000600fc
:1013b000889fbe008a9fbe008c9fbe008e1f780053
:1013c000010678000c00e00001003200000e7800f9
:1013d00080047800090578008a047800b905fb00cc
:1013e0000b007800c5fd07000000e000f9ff3a009f
:1013f000d0022000808f550003003a0009057800d4
:1014000018c0b300050037000044eb00b002200014
:10141000808f550001003a00090578006000b8008f
:101420008004eb000007eb00010037000a05e8002c
:101430000a0178000848a30005003a00e3c2b3009f
:101440009acf110002003a000844a000f7ff3700cd
:101450009a4578008b01fb000303b100e98f51002e
:1014600016003e000814a0000801fb00e98f54009c
:101470000e0032000248a300010032000e07e9000e
:101480008904e800a2002000030020009909070059
:1014900002cdb30002c145000281fb008001eb00d8
:1014a0000000410081804900e0ff37000248a300ae
:1014b000deff3a000e07e800dcff370053c6b3003a
:1014c00083cf5500040032008004eb0053c4b30006
:1014d00083cf55002d003a005a417800d3c2b300a3
:1014e000834f510002003a000834a0000300370087
:1014f000b3c2b300834f510001003a000a05e8006f
:101500000a017800020578003a42780003c3b3006c
:10151000834f5200faff32008402fb000503b10042
:101520008004eb00e98f520015003e008344520016
:101530008984fb000a017800124278008402fb00d3
:101540000503b100e98f52000d003e006a4bb9005f
:10155000834452008984fb00868444005242780010
:101560008402fb000503b100e98f520004003e0035
:101570006a4bb900834452008984fb00868444008e
:101580000838a300010032008904ea000c00e000e2
:10159000030032000818a30001003200020e780098
:1015a0008dfe07000005be000006be006011b800f9
:1015b00049fe0700000178006000b8000200e0006a
:1015c000580032008e84440032f82f00828f54007d
:1015d00003003d0022022000727188005100370094
:1015e00000082000808f54000700340020022000f3
:1015f000707188000808a300450032000000200038
:1016000001f82f00470037000900e0001b003d00f3
:101610008904ea0006003700922f200053012500bc
:101620000a00be00eafd07000005be00ea8454007f
:10163000e98f5400f8ff3c0006003700020020004c
:10164000031224000a00be00e1fd07000005be00f1
:101650008904e9000900e000f8ff3a000a06be002c
:1016600002002000030820000a00be001afe070046
:101670000000e00021003d001b0037000900e000f1
:1016800007003a001d003700922f2000530125006b
:101690000a00be00a8fe07000005be00ea84540050
:1016a000e9cf5400f8ff3e0006003700020020009a
:1016b000031224000a00be009ffe07000005be00c2
:1016c0008904e9000900e000f8ff3a000a06be00bc
:1016d000f2ff2f00f3f727000a00be0000fe07000c
:1016e0000000e000050034000808a3000b003200f1
:1016f00000002000010828000a0037000808a300a5
:10170000010032000df0a2000c00be000500370001
:101710000000200001f82700020037000000200030
:10172000010820004f0778004f06be004f05be009d
:101730004f04be00000006001dff37008000eb00d4
:101740001bff37000c00fa00889fbe0000047800e1
:10175000f0ff2700d0bf9f008004eb0099bf9f00df
:1017600088bf9f00a8bf9f00200c2000b0bf9f0033
:1017700078815700cfb0970070805700cf000700e6
:101780000fb89700094878008fb89700088050007c
:101790004f04be000080fa00000006000800fa00b6
:1017a000889fbe008a9fbe000084fb00d1c6b300a4
:1017b000814f5000340036004b0620001100090014
:1017c0000b84d80081057800720040004300dd00e2
:1017d000c9cd2000008044006022b800060020002f
:1017e00007fe23005001be004000be00460807006f
:1017f0000002be000203be0084bf9f0095bf9f0091
:10180000a6bf9f00b7bf9f00aa00200011000900db
:101810008a85d80080057800e9854500c35ddd0034
:101820008b8544003b02be002b03be000fb897001f
:101830009fb897002fb99700bfb9970032080700eb
:101840000002be000203be0084bf9f0095bf9f0040
:10185000a6bf9f00b7bf9f00110009000a84d800ef
:10186000010478004344dd00888444003902be004e
:101870002903be000fb897009fb897002fb99700b3
:10188000bfb997001d003700ea4f50001300360023
:10189000aa002000110009000a84d8000105780080
:1018a000690440004344dd00c9cd200008844400a1
:1018b0006022b8000600200007fe23003800be00aa
:1018c0002801be00100807004355dd008a8444004b
:1018d0003902be002903be00080037004344dd0082
:1018e000c0cd2000080440006022b800060020009f
:1018f00007fe23003800be002801be0002080700d2
:101900004f05be004f04be000080fa000000060034
:101910000800fa00889fbe008a9fbe00d1c6b300af
:101920000004e00023003d000040ea000004fb004a
:10193000814f50000a0034004206200011000900c7
:101940000204d800a9002000110009008900d80075
:10195000e9004000c308dd00cacd200021003700a7
:10196000ea4f500010003400a200200011000900ce
:101970000204d80001017800690040004300dd0046
:10198000c1cd2000008040004311dd008280400076
:101990003102be002103be005001be004000be0067
:1019a000d9070700380037004344dd00c0cd2000d0
:1019b000320037000004fb00814f50002300340048
:1019c00042062000110009000204d800a9002000ee
:1019d000110009008900d800e9004000c308dd00bb
:1019e000cac22000810045003102be002103be00b2
:1019f0008b0920008a8545003b00be002b01be00fc
:101a0000c10707000002be000203be0084bf9f00a2
:101a100095bf9f00a6bf9f00b7bf9f0011000900a0
:101a20000904d800010478004344dd00080545009e
:101a30003a02be002a03be000fb897009fb8970075
:101a40002fb99700bfb99700d5ff3700ea4f500074
:101a500008003400a2002000110009000204d80090
:101a600001017800690040004300dd00c1c2200090
:101a7000c4ff37004344dd00c0c22000080440001a
:101a80003800be002801be004f05be004f04be0056
:101a90000080fa0000000600d00190000281510091
:101aa0004240a90003003400100178000149780089
:101ab0000208e80001007800000006006f02b00094
:101ac000889fbe008a9fbe008c9fbe008e1f78003c
:101ad00000067800b1af9f0082b79f006000b80099
:101ae0006011b800c0af9f00d1af9f00e2af9f0070
:101af000f3af9f008006eb006e043700bfa897008d
:101b00008100e800b1af9f0051c2b300814f500087
:101b100003003a00bfa997000000eb001100370056
:101b2000bc0090000000fb000168a3000700320029
:101b30000d017800800078000c007800d6ff0700c7
:101b40000000e00005003a005a0437008c007800dd
:101b500064040700e10f4000560432008d06e800df
:101b60005404370003017800b3407800d4c2b300b6
:101b700084cf50000c00320007003c006d42520040
:101b800084cf50000a0032006b42420084cf5000e4
:101b90000d003a000800370004c3b30084cf5000a2
:101ba00009003a00060037000030a000edff3700c2
:101bb0000000a000ebff37000010a000e9ff370095
:101bc0000020a000e7ff37000018a300010032004a
:101bd0000000a1000038a300010032000020a10095
:101be0008101fb000303b100e98f51000c003e00ae
:101bf000820178008005eb006a5ab900b305fb004a
:101c00000b03b10084854500030178009300fb00bd
:101c10000103b100e98f5000f7ff360008003700dc
:101c20008005eb00a3c2b30083cf500004003a004c
:101c30008fb19700c305780083b79f000201e800c9
:101c4000e1c2b30092cf100017003a0000e0a000fc
:101c5000e4c05000d2cf10000400320082007800af
:101c60000002eb00e4b79f00080037008fb2970036
:101c70004503780085b79f00e6b79f000201e800a2
:101c80000c0037006a22b90004824100010178008b
:101c9000b101fb000303b100e98f5100f9ff3600e9
:101ca000e4b79f000300370000c0a0008003eb00f2
:101cb000e7b79f00b2407800b2af9f00c3c6b30041
:101cc00083cf50001400320009003c0032c6b3003c
:101cd00082cf5000790032006341410082cf500032
:101ce0000f0032000104e000f70332008c003700df
:101cf00052c7b30082cf50008e00320063414100d2
:101d000082cf5000090032006541510082cf50005f
:101d100083003a00080037000040a000e5ff3700cc
:101d2000e1cf9f0000a0a00084003700e1cf9f001a
:101d30000070a00081003700e1cf9f000fb2970034
:101d4000c400780084b79f00010478000100e0001f
:101d500001003a00c8d82000080178008000eb009c
:101d6000010037008100e800e2c178000304e000d0
:101d7000fcff3a0081047800efb297000500e00014
:101d800003003200898f5200010031008504780081
:101d90000005eb00898f55000100360009855500cc
:101da000e80560002a003a00110037003c0090006e
:101db0000068a300070032000d0178000102200036
:101dc0000c00780034ff07000000e00006003a0035
:101dd000060037008c00780000022000c1030700d5
:101de000e10f4000010032008d06e8000a05e9001d
:101df0000a00e000edff3a000085eb001400370018
:101e00003c0090000068a300090032000800780040
:101e1000b000fb00000478000d0178000c00780091
:101e20001dff07000000e00008003a00080037002e
:101e3000880078003100fb00010478008c007800f5
:101e4000a8030700e10f4000010032008d06e80002
:101e5000090078008004e9000000e000e8ff3a0093
:101e60000b00e00093033200110037003c009000ab
:101e70000068a300070032000d0178000102200075
:101e80000c00780004ff07000000e00006003a00a4
:101e9000060037008c007800000220009103070044
:101ea000e10f4000010032008d06e8000a05e9005c
:101eb0000a00e000edff3a007e0337000fb3970001
:101ec0004602780086b79f00cfa2de00c82bdd0057
:101ed0004821de0002817300c829de00e2cf9f00a6
:101ee0000048a300080032000204e00006003200af
:101ef000e14f410004003200f2cf9f0084d79f00e1
:101f00002900200002003700f4cf9f0019002000b4
:101f1000e1fc2f008f8040000104e80096ff3700ad
:101f2000e1cf9f00e8fc2f000f04440019002000bf
:101f300091ff3700e1cf9f00000cb300d0b79f00a6
:101f4000007020005fb1970000006100f0016100a7
:101f5000a3af9f000000e0002402320002c8a300eb
:101f60000200320064002000e4b79f00afaa97008f
:101f70000500e000090032000fb297004401be00e6
:101f80004400be0084b79f0090b79f00a1b79f0098
:101f9000b2b79f00c3b79f000a0037008fb2970007
:101fa0004500be0085b79f00e70507000002be00a0
:101fb0000203be0094b79f00a5b79f00b6b79f006d
:101fc000c7b79f006022b8006033b8001fb0970009
:101fd000afb097003fb19700cfb197002c05070035
:101fe0000000e0000c003d001fb09700afb097006c
:101ff0003fb19700cfb1970003f0a20090b79f00c8
:10200000a1b79f00b2b79f00c3b79f00dfb0970092
:102010003100b300d1b79f000000eb0090af9f00ec
:102020006022b8006033b8001fb09700afb09700cf
:102030003fb19700cfb19700790507000000e0009d
:102040003400320024fd2f000f0242001fb0970021
:10205000afb097003fb19700cfb197000c060700d3
:102060001fa897000000e9006302b900a200200049
:10207000110009000202d80090af9f000000e000ac
:1020800002003d000000e90090af9f001fac9700e8
:102090000840ea001efe07001fb29700afb297008b
:1020a0003fb39700cfb39700170607000002be00aa
:1020b0000203be00c4af9f00d5af9f00e6af9f00f4
:1020c000f7af9f006022b8000600200007ff230042
:1020d000ef0407000000e00002003d000804e900f2
:1020e0000b0037006022b8000600200047022400e1
:1020f0004fa89700dfa897006fa99700ffa9970046
:10210000e80407000000e000020035000804e800d1
:1021100098af9f00efb29700ec8f52000f003c0089
:10212000054078009dfd07000002be000203be00ce
:102130001fb09700afb097003fb19700cfb19700a5
:10214000550407000002be000203be0094b79f00c2
:10215000a5b79f00b6b79f00c7b79f001fac9700f9
:10216000e90f540015003c006022b8006033b8004d
:102170001fb09700afb097003fb19700cfb1970065
:10218000270507000000e000310032001fb0970073
:10219000afb097003fb19700cfb197008905070016
:1021a000e00f5000e08f5800e00f5900e08f590019
:1021b00027003a00e10f54002500340004002000fd
:1021c00005002e00b6e02200170124004fa897005a
:1021d000dfa897006fa99700ffa99700ac0407003c
:1021e0000000e00002003d006904540001003700d7
:1021f0006804540098af9f002fd09700c4fd0700db
:102200000002be000203be00c4af9f00d5af9f0016
:10221000e6af9f00f7af9f001fb09700afb09700e9
:102220003fb19700cfb19700a304070065050700f1
:102230000004be006000b8006011b80090b79f00b5
:10224000a1b79f00b2b79f00c3b79f001600370029
:102250001fb09700afb097003fb19700cfb1970084
:10226000580507000004be00870507000002be00f5
:102270000203be001fb09700afb097003fb19700b8
:10228000cfb19700160607000002be000203be0091
:1022900094b79f00a5b79f00b6b79f00c7b79f0030
:1022a0000000eb0090af9f0041da200010c0b300a7
:1022b00005003700e4804000b10f5400a18f5c009e
:1022c000030039000040e800ea4f5000f9ff3a00ef
:1022d000e0cf9f009fa8970081805500efb2970044
:1022e000858050000005fb000a8550000500e000d5
:1022f000010032000a05e9005fb397006300630044
:10230000010032000a05e900dfb397000728a300a7
:1023100039003200618163000718a3000f0032000a
:102320003c0090000068a30006003200b1022000cb
:102330000200e000010032008180e8000d01780019
:102340000d003700b00220000200e0000100320062
:102350000080e8008c0078000e0037000200e000ea
:10236000220032003c0090000068a3000700320009
:102370000d017800010220000c007800c6fd070066
:102380000000e00006003a00180037008c007800da
:102390000002200053020700e10f4000130032004a
:1023a0008d06e800110037003c0090000068a30093
:1023b000070032000d017800010320000c007800b6
:1023c000b5fd07000000e00006003a0006003700f7
:1023d0008c0078000003200042020700e10f40005b
:1023e000010032008d06e8000a05e9000a00e0005d
:1023f000edff3c00590037005fb097000038a300a4
:1024000014003a00110037003c0090000068a3005f
:10241000070032000d017800010220000c00780056
:102420009dfd07000000e00006003a0006003700ae
:102430008c007800000220002a020700e10f400013
:10244000010032008d06e8000a05e9000a00e000fc
:10245000edff3c00dfb09700618160000118a30030
:102460000e0032003c0090000068a300050032001e
:10247000b10220000200e000220032008180e8006a
:1024800020003700b00220000200e000010032000e
:102490000080e8008c0078002c0037000200e0008b
:1024a0002e0032003c0090000068a30003003200c0
:1024b0000d01780001022000130037008c00780025
:1024c00000022000210037003c01900041da20008a
:1024d0000000fb000268a300100032004200dd0093
:1024e000008040001001be000800be0046fb07004f
:1024f000a2002000030020007b050700010320004c
:10250000808040000d0178000c00780062fd07001b
:102510000000e00010003a00100037004200dd002b
:10252000008040001001be000800be0036fb07001e
:10253000a2002000030020006b050700020320001a
:10254000000141008c00780002007800e5010700de
:10255000e10f4000010032008d06e800efc897004f
:102560000140e900e0cf9f000104e000d6ff3a00ff
:10257000130037003c0090000068a3000700320001
:102580000d017800010320000c00780042fd0700d7
:102590000000e00006003a00060037008c007800da
:1025a00000032000cf010700e10f400001003200ce
:1025b0008d06e8001fa897000000e90090af9f007b
:1025c0001fa897000000e000eaff3c006fb19700f1
:1025d000e80f51000300340080c0b300e0cf9f003b
:1025e00002003700cfe99700e3cf9f006fc8970044
:1025f0008005fb006fb297008b0552000004e000dd
:10260000100032003c0090000068a3000700320078
:102610000d017800e10220000c0078001efd07008b
:102620000000e00006003a00060037008c00780049
:10263000e0022000ab010700e10f40000100320082
:102640008d06e8006fc89700b1fc07000002be00cd
:102650000203be001fb09700afb097003fb19700d4
:10266000cfb19700a8040700560407002d003700db
:102670003c01900041da20000000fb000268a3004a
:10268000100032004200dd00808040001101be00d9
:102690000800be00dcfa0700a200200003002000b2
:1026a0001105070001032000808040000d01780023
:1026b0000c007800f8fc07000000e00010003a0071
:1026c000100037004200dd00808040001101be0094
:1026d0000800be00ccfa0700a20020000300200082
:1026e0000105070002032000000141008c00780072
:1026f000020078007b010700e10f4000010032007a
:102700008d06e800efca97000500fb004200dd00df
:1027100041da2000008040001001be000800be0029
:10272000f10407000004be00efc897000140e90073
:10273000e0cf9f000104e000cdff3a001100370018
:102740003c0090000068a300070032000d017800f3
:10275000010320000c007800cffc07000000e0001f
:1027600006003a00060037008c00780000032000c5
:102770005c010700e10f4000010032008d06e80017
:102780008b05e9000b00e000edff3a005fb3970016
:102790000638a300470132000a00e000450134007a
:1027a0003c0090000068a300070032000d01780093
:1027b000010220000c007800b7fc07000000e000d8
:1027c00006003a00060037008c0078000002200066
:1027d00044010700e10f4000010032008d06e800cf
:1027e0000a05e900eeff3a0032013700afab97006f
:1027f0000700e000040032000fb097004004be0064
:1028000080b79f00040037008fb097004104780024
:1028100081b79f008004eb006fb197000200e000d9
:1028200006003a000880740000f0a7000000ea00eb
:102830000000e9004f00de00e0b79f00dfb1970025
:10284000030cb20093b79f0000082000808f510056
:102850000d003200000c2000808f510018003a005b
:1028600041da200010c0b300e4804000b10f5400f2
:10287000a18f5c00110039000040e800ea4f5000d1
:10288000f9ff3a000d00370010c0b300020120002c
:1028900003002000820f5400838f5c000700390082
:1028a000441add00cc11de00830172004411dd000a
:1028b0000040e800e84f5000f6ff3a00e0cf9f00ec
:1028c000efca97000500fb006fb39700860f50001a
:1028d00002003d00e6cf9f0004003700efb39700f1
:1028e000808f530001003d00e0b79f000b00e00027
:1028f00004003200dfb09700638060000100320006
:102900008b05e9005fb1970002e8a30006003200e2
:10291000efb19700838f5500020034008385550086
:10292000010037008005eb006fca97000400fb0030
:102930000007eb00808f5500010034000087550030
:10294000dfb297000528a3003800320061816200e1
:102950000518a3000f0032003c0090000068a3009f
:1029600006003200b10220000200e0000100320047
:102970008180e8000d0178000d003700b0022000d2
:102980000200e000010032000080e8008c007800c6
:102990000e0037000200e000100032003c00900002
:1029a0000068a300070032000d017800010220003a
:1029b0000c00780038fc07000000e00006003a0038
:1029c000060037008c00780000022000c5000700d8
:1029d000e10f4000010032008d06e8000e00e0002b
:1029e0004e0032003c0090000068a3000700320057
:1029f0000d017800010320000c00780026fc070080
:102a00000000e00006003a00060037008c00780065
:102a100000032000b3000700e10f40000100320076
:102a20008d06e8000e07e900ecff37000e00e0001d
:102a3000150032005fb397000638a30012003a0079
:102a40003c0090000068a300070032000d017800f0
:102a5000010220000c0078000ffc07000000e000dd
:102a600006003a00060037008c00780000022000c3
:102a70009c000700e10f4000010032008d06e800d5
:102a80000e07e900eeff3a00dfb3970061816300b3
:102a90000718a3000f0032003c0090000068a3005c
:102aa00006003200b10220000200e0000100320006
:102ab0008180e8000d0178000d003700b002200091
:102ac0000200e000010032000080e8008c00780085
:102ad0000e0037000200e000100032003c009000c1
:102ae0000068a300070032000d01780001022000f9
:102af0000c007800e8fb07000000e00006003a0048
:102b0000060037008c0078000002200075000700e6
:102b1000e10f4000010032008d06e8006fb0970021
:102b20000002e9004222dd0040da200000024200fb
:102b3000efb5970004057800450037008b05e900e4
:102b4000000820009fb09700808f500021003200c5
:102b5000000c2000808f50002b003a002fa9970016
:102b60000200e000100032001a02be000401be00a4
:102b70000800be00f4b79f0085bf9f00a2f90700c0
:102b8000e0cf9f000000fb00cf80de007fb2970007
:102b90008fba97000401be00d6030700000454005a
:102ba00081845c00070037001a01780011000900d9
:102bb0000284d800a2002000110009000280d80081
:102bc000e1cf9f00efc997000343b000e3cf9f0020
:102bd0000d00370040da2000000055000802be005a
:102be000000378000603e900030033008502d100ea
:102bf0000482d300fbff37006f00620031d9200050
:102c000061407800e0cf9f00bc009000efcb9700c0
:102c10000700fb000168a300070032000d017800e7
:102c2000800078000c0078009bfb07000000e000ab
:102c300005003a00050037008c00780029000700e5
:102c4000e10f4000010032008d06e80064055500e8
:102c50000b00e000b9ff3a005fb097000038a30016
:102c6000140032000e00e000120034003c0090001e
:102c70000068a300070032000d0178000102200067
:102c80000c00780084fb07000000e00006003a001a
:102c9000060037008c0078000002200011000700b9
:102ca000e10f4000010032008d06e8000e07e90048
:102cb000eeff3a00bfa8970011407800e0cf9f00d8
:102cc0000004e0008dfb3a000d0078004f0778000b
:102cd0004f06be004f05be004f04be006f02b1009c
:102ce00000000600889fbe0001047800b800900034
:102cf0008084eb000118a3003a0032001801900014
:102d00000198a30002003a000200e00035003a00fa
:102d10000190a0003104980080047800f90fb200ff
:102d20000200e00002003a0028009000000c780049
:102d3000ea8f540005003a000178a30003003a002e
:102d400088007800d0002000e6ff070018009000ff
:102d5000d8009000810f50000b0032000000e80006
:102d6000100498001800780009487800000ce8006a
:102d700011c0b30080e2200001487800ea8f5400bf
:102d800018003a00050037008800780009407800f4
:102d9000ff00070080047800120037003800900020
:102da0000088a3000f00320018019000a8009000d6
:102db0004800900059f7070098009000810f5000dc
:102dc00004003200380090000003b3003004980083
:102dd0008084eb000000eb001004980028009000b5
:102de000000c7800090078004f04be0000000600c7
:102df000889fbe008a9fbe008c9fbe0081e120009c
:102e0000c27080000200e0000b003a0064814000c4
:102e1000c270880012718800a100980001718800ba
:102e2000214190000204a000a2409800614190005e
:102e30000204a000e2409800670440004244de0023
:102e40004244dd000471800041e320004963210019
:102e5000818454002d002000110009008d04d80049
:102e6000800678000886e8000c0646008001eb002a
:102e700002003700130020000b027800a4409000ed
:102e80000108a300020032000a003700120a78008d
:102e900014017800a24090000108a300fbff32005b
:102ea00088004200810f5100020039000800e00054
:102eb00042003d00940578000b00a100848f55006e
:102ec000edff3e00e18f5100eaff3a008d0f540004
:102ed00002003600890f5400140039006141b80027
:102ee0006148b900b4ff2f00050020000000520027
:102ef00081805a00800f5100818f590002003500f7
:102f0000640544000a00370040e320007a63210092
:102f10000005550008054500110009000985d80085
:102f20000980b90000057800010037000c05780021
:102f30000a00780026f70700e10f400005003a007c
:102f4000640544000a00780021f70700e10f400003
:102f50002b00320011718000800878001171800010
:102f6000e481400021419000830f500002003200b4
:102f70000204a000010037000204a100a240980052
:102f8000640555000a0540000a0878001a71880097
:102f900081e12000010d780012718000a2409000b4
:102fa0000104a00021419800a04090000104a1006c
:102fb000214098008001eb00afff370001718800cd
:102fc000810f5100070036001101be0022718800f8
:102fd00033718800940878000041eb000171800093
:102fe000a240980003718000030a7800a44090007a
:102ff0000104a00021429800640042000100370053
:103000000000eb004f06be004f05be004f04be009f
:10301000000006000000e0000800320064005000dc
:1030200001718000810f50000100310000718800a3
:10303000a04090000104a10021409800000006007b
:10304000889fbe008a9fbe000004be000900e00009
:1030500007003a000000eb000800e00036003200f4
:1030600008007800ebff07000000eb00320037009b
:103070000800e00003003a00090078005cff070048
:103080002d003700640054009005780068f8970020
:103090000008a3000200320008007800ddff0700ee
:1030a0000900780052ff0700800478000000eb0060
:1030b0000900e00020003200888f54001b0032001d
:1030c00069bd97000905550042d5de008885550089
:1030d000c2ddde000a0178008b0f550001003600ca
:1030e0000b0178004211dd008800780009007800ab
:1030f00014000700888f54000e0031004255dd0097
:103100000a854400880f55000a003600080455005f
:1031100042c4de004244dd00088444002071800087
:1031200031718000008cbe0002003700080078007a
:1031300001003700090078004f05be004f04be00b3
:10314000000006008001780002003700b1597800c5
:103150000201e9000200e000fcff3a000000060066
:1031600000017800b1417800035978000304e000c1
:10317000fcff3a0000000600800078003104e00007
:10318000feff3a000080ea000080400000000600d8
:103190000200fa00889fbe00a0ff9f000104780093
:1031a000380090000068a30033003a00e20060009d
:1031b00005003a000003b3003004980011049800a1
:1031c0000080eb002e003700d80490000900e000da
:1031d00006003a0012002000e680570048009000e8
:1031e0004ef607001904980023003700a80090004d
:1031f0000100e00008003a00b1e22000210498003c
:10320000010c78002100200051049800110498005e
:103210000030a0003004980018019000a800900031
:10322000480090003df60700280090008080eb00e9
:1032300011049800aff8970001487800000ce800ee
:103240002ff89700ea4f50000b003a00380090002a
:103250000088a3000800320018019000a800900028
:10326000480090002df607000000eb0010049800c5
:10327000a8009000010c7800aff897000100fb0057
:103280004f04be000080fa000000060000c0da0013
:1032900000000600000000002800fa00889fbe0021
:1032a0008a9fbe008c9fbe00070678008786690053
:1032b0000c003b00030478008704780008f0a100ac
:1032c00009f0a100840f5000858f5800860f590027
:1032d000890f5c00030033000cf0a20001003a00eb
:1032e0000cf0a100ff0007006400e1005f00320065
:1032f000780147006408e100610032006c0147007a
:10330000748557003200be001201be003a04be00b0
:103310001a05be001e039000be0a900085035300ec
:1033200006003d000004fd008104fd000205fd00d3
:103330008305fd008703ea00050378000df8a3006c
:103340000400320060041400e0841c0060051d00cd
:10335000e0851d006022b8007d0320000d38e100eb
:103360008006eb000b0039004433dd00f300b200af
:103370008301730039003700848272000d027800e7
:10338000e10664008b85d1000a85d3008984d300cf
:103390000884d3008703e900f7ff3b0008004000e2
:1033a000898048000a0149008b81490004003b00e4
:1033b00060001000e080180060011900e081190031
:1033c0000358a300090032008d82720084827200cb
:1033d000610260008301d1000281d3008180d300ab
:1033e0000080d3000603e8001b0037000348a30059
:1033f00017003a000600e000170034000603e90059
:103400000d00a3000000480081804800020149002f
:10341000838149000348a3000f003a000600e00042
:10342000090034000603e9000000400081804800e4
:10343000020149008381490001003a000003eb00ca
:103440000348a300f5ff32006022b80002003700f5
:1034500084827200618266007600070003f0a1009a
:103460000cf0a70003f0a000b20037006401470091
:103470006408e10002003a000df8a300aa003a0037
:103480003200be001201be00aa003700000000009a
:103490008f1fd1009d0107008f87e9000000e00029
:1034a00000000600809feb00980107008f87e9006d
:1034b0000000e000000006002800fa00889fbe001f
:1034c0008a9fbe008c9fbe0003866b0085000700ac
:1034d0006400e100440032006408e1004a00320068
:1034e0006100e100460032006108e100490032005d
:1034f000ec0647006000b8003d02be003d03be0080
:10350000f48657006011b8003d04be003d05be00c2
:103510007d0320000b0037000000a0008d06e900ad
:10352000130032000402420085824a0006034b0069
:1035300087834b0000004000818048000201490061
:10354000838149000802520089825a000a035b0005
:103550008b835b00f0ff3b000802420089824a0037
:103560000a034b008b834b008d06e900edff3a0008
:103570008482720086827200f707b200878272002e
:1035800001003200150020001e0490003e0b900048
:1035900006035400e63fb0000368a30007003200b2
:1035a0000000a7000500a0008301d1000281d30024
:1035b0008180d3000080d3000603e8008301d1009e
:1035c0000281d3008180d3000080d3000002eb0091
:1035d0000482d2001700070003f0a1000cf0a7003e
:1035e00003f0a00053003700640247006408e100c4
:1035f0004d0032003400be003401be00f6ff37003b
:103600006108e100480032006011b8006000b800b5
:10361000f1ff370003ff270002002000fbff370007
:10362000801feb00390107008f87e9000000e000f0
:103630000000060018002000570020000804530076
:103640000d003d000600200097fc2f000740e10020
:103650001e00340084827200610260008301d10088
:103660000281d3008180d3000080d3000804e800e9
:10367000f8ff3a0047002000610460000504740070
:10368000040464000d00320061004000e080480046
:1036900060014900e081490003b8a500070032003d
:1036a0000603e8006538e10004003a008301d10018
:1036b0000281d3008180d3000080d300f87f2000f6
:1036c0000830e10003003500080378006000b8000e
:1036d0006011b8004433dd00f300b20083017300d1
:1036e00000000600680447000294be000094be007b
:1036f000fc0447008694be008494be000900780054
:103700004b01070008007800490107009900780084
:10371000814f70000b003b000800be002401070031
:103720004f00b10003003700f3ff2700f2ff2f0026
:103730006110b9004f06be004f05be004f04be0029
:103740000080fa0000000600810378004df60700b3
:103750000001be006000b8000478a30013003a0026
:103760006220e10015003e000d0039008301d10008
:103770000281d3008180d3008301d1000281d30074
:103780008180d3008301d1000281d3008180d300e6
:103790000538b000c42add00f300b2008381720056
:1037a00007f0a70003f0a00000000600f3ff2700c9
:1037b000f2ff2f006110b900fbff370003ff270065
:1037c000f7ff37001400fa00889fbe008a9fbe00f2
:1037d0008c9fbe000004be000205be0068004700ca
:1037e0000a90be000890be00110107000070a700fb
:1037f0000bf0a1000bf8a30020003a009e099000f6
:103800000e099000fe0090006e0090009e02900055
:103810003443200084825200c6ff32000a003c007c
:10382000b4fc2f000428e100140034008301d1000f
:103830000281d3008180d3000080d3008502e8009c
:10384000faff3a00bbff3700b40020000428e10073
:1038500007003c0000004000818048000201490050
:10386000838149008502e900faff3a00b1ff370081
:103870000300280002002000010037006011b8009a
:103880006000b800abff37006011b8000f013700cf
:103890001400fa00889fbe008a9fbe008c9fbe0065
:1038a000040678000004be000205be006800470060
:1038b0000a90be000890be00dd0007006200e10033
:1038c0000800be000a01be00040020000b003a0000
:1038d0001e029000e43fb1006e009000fe009000d8
:1038e0000e0990009e099000f300b20005fe23002f
:1038f000858171000bf0a70003f0a000040e780092
:103900008cff3700000000002800fa00889fbe00ee
:103910008a9fbe008c9fbe0003866b0071ff07006c
:103920000028a30064003a000128a30067003a00c1
:103930000008a30062003a000108a30065003a00f5
:103940001e009000be08900081064000ed3fb100cf
:10395000f4805700ee019000111ab8008e09900013
:10396000311bb8009e099000311cb800511db800f1
:10397000f485570046000700fe0190003a0007005a
:103980008b85e8003e0007008e099000400007008c
:10399000ee019000340007008b85e8003800070036
:1039a0008e099000400007009e0990001b18b80087
:1039b000890440000a854800fe0190003400070099
:1039c0008b85e80038000700ee019000300007000a
:1039d0008e0990001b18b800890440000a85480031
:1039e0000a98a30008003a000402420085824a00b7
:1039f00006034b0087834b0008044c0089844c006d
:103a00000a054d008d06e90084827200850273006c
:103a10004c3add00850272000100320015002000e2
:103a2000443ade001400b2004538de00cb45dd002c
:103a30000b007000c540de00cb4ddd008b807000b8
:103a40004549de00cb55dd000b017100c551de009c
:103a50000d037800f7fe070003f0a1000cf0a700ab
:103a600003f0a00033ff37001b18b80085024000a8
:103a700006834800e0834b0060044c0007003700d9
:103a80001b18b8000603400087834800faff370080
:103a90001b18b8008703400008844800e0844c00ed
:103aa00060054d00000006001b18b8000804400027
:103ab00089844800faff37000108a3001aff3a0082
:103ac0005800be005801be00e3ff37000008a30005
:103ad00015ff3a0009047800f9ff370000000000e4
:103ae00007f0a200ecfd3700c7f507000400be0098
:103af00000000600020ab900001bb9000200b8006d
:103b0000810042008100430000000600889fbe0043
:103b10008a9fbe008c9fbe000404be000605be0046
:103b2000809fbe00829fbe002f0007000406780021
:103b30000800be000a01be002b00070084067800c2
:103b40004f03be004f02be008d4f76007fb097003e
:103b500013003300f0ff2f008b8f6b0006003b003b
:103b60000d0666000c00a7000a00370007f0a6004b
:103b7000100020000a003700880f5200898f5a0079
:103b80008a0f5b008b8f5b00030039001000200060
:103b900001003e000000200007f0a7000000ea003e
:103ba0004f06be004f05be004f04be0000000600d9
:103bb000e48240001078a300070032006402400055
:103bc0001178a3003400be001401be0004003200ce
:103bd0000330a700000006003500be001501be003e
:103be0000330a0000000060005ff270005826100e9
:103bf000070032000428e100010032002400050023
:103c00000600070001003a00440005000408050012
:103c100002000700f9ff3a00140005006f826100fe
:103c200081027000850271008502720000000600aa
:103c3000800078005002be005003be004439de0010
:103c4000f700b200f37f2000030161000900320099
:103c50000218e10016003a0085017200830173002a
:103c6000838173000008200015003a004000200006
:103c70001300370085017200830173008381730094
:103c800005003a0004a8be0006a8be0010002000ef
:103c90000b0037000201e9000402420085824a005d
:103ca00006034b0087834b000748a300f9ff32004f
:103cb0000740a00004a8be0006a8be002000200007
:103cc000800098009200980000000600889fbe00c7
:103cd000008270000402710004827100240032002e
:103ce00036432000c50020008383cf000a0039003e
:103cf0000541b1008283cf00070039000541b100c2
:103d00008183cf00040039000541b1008083cf00da
:103d1000010039000541b10085c353006022b8009d
:103d2000120032000a003b008482720061026000cf
:103d30008301d1000281d3008180d3000080d300b1
:103d40000603e8008743e800f7ff3a000700370062
:103d50000000400081804800020149008381490041
:103d60000603e9008743e900f9ff3a0031fe070046
:083d70004f04be000000060034
:020000040000fa
:103d7800003f0000065b00004f6600006d7d0000fc
:103d8800077f00006f40000048000000203000005e
:103d98003132000033340000353600003738000077
:103da800392d00003d000000770400000f150000c9
:103db800390000000f1100007904000071040000b0
:103dc8003d04000076040000091100001e000000f8
:103dd800700a000038000000b6020000b6080000b3
:103de8003f000000730400003f080000730c00004f
:103df8006d040000011100003e00000030220000a8
:103e080036280000802a0000621400000922000001
:103e18003f220000060000005b0400004f04000081
:103e2800660400006d0400007d0400000700000027
:103e38007f0400006f0400004004000040150000eb
:103e4800c03f0000002200004804000000000000fd
:103e58004142000043440000454600004748000036
:103e6800494a00004b4c00004d4e00004f500000e6
:103e78005152000053540000555600005758000096
:103e8800595a000030310000323300003435000048
:103e980036370000383900002d2b00002f3d000078
:103ea80020000000000000000100000002000000e7
:103eb80003000000040000000500000006000000e8
:103ec8000700000008000000090000002566000047
:103ed8000000000047520000415000004800000068
:103ee800554e0000495400005300000044450000ae
:103ef800434d00004c0000004449000053500000ae
:103f08005244000000430000414c000049420000b8
:103f180000520000455300004554000000450000d1
:103f280058490000540000004d4900004e000000b0
:103f38004d41000058000000202000002020000013
:103f4800200000004f460000465300004554000082
:103f580000530000434100004c450000005700009a
:103f68004149000054000000c5030000b23f0000b2
:103f7800ed600000bd3e0000c9630000c33d0000c5
:103f8800ccf20000d4bb0000c03b00002339000085
:020000040000fa
:103f98001080ba00000006001000ba0000000600f9
:103fa800801f78000500fc0050052000303b880089
:103fb800a00a2000303b880061e7a800000000004c
:103fc8000000000061e7af00feff37004f007800f7
:103fd800000006008088bb00000006008008bb00c7
:043fe80000000600cf
:020000040000fa
:10a000000800fa00100798004147980032079800ae
:10a010000000eb00000f78009e0090003e009000d2
:10a0200000004000008040008000eb000108780044
:10a03000ce40900000c3b30080cf50000b003a0028
:10a04000d0eb2900104078008080fb001e019000ba
:10a050003e00900000004000000041000108780030
:10a0600010002000000f7800af003700ce409000b5
:10a0700010c3b30080cf50000b003a00e0eb290082
:10a08000104078008080fb001e0190003e00900090
:10a09000000040000000410001087800200020007e
:10a0a000000f7800a0003700ce40900020c3b3001e
:10a0b00080cf50000b003a00f0eb290010407800f0
:10a0c0008080fb001e0190003e00900000004000d8
:10a0d000000041000108780030002000000f7800e7
:10a0e00091003700ce40900030c3b30080cf5000c5
:10a0f0000b003a0000ec2900104078008080fb0043
:10a100001e0190003e009000000040000000410051
:10a110000108780040002000000f7800820037001e
:10a12000ce40900040c3b30080cf50000b003a00f7
:10a1300010ec2900104078008080fb001e01900088
:10a140003e0090000000400000004100010878003f
:10a1500050002000000f780073003700ce409000c0
:10a1600050c3b30080cf50000b003a0020ec290010
:10a17000104078008080fb001e0190003e0090009f
:10a18000000040000000410001087800600020004d
:10a19000000f780064003700ce40900060c3b30029
:10a1a00080cf50000b003a0030ec290010407800be
:10a1b0008080fb001e0190003e00900000004000e7
:10a1c000000041000108780070002000000f7800b6
:10a1d00055003700ce40900070c3b30080cf5000d0
:10a1e0000b003a0040ec2900104078008080fb0012
:10a1f0001e0190003e009000000040000000410061
:10a200000108780080002000000f78004600370029
:10a21000ce40900080c3b30080cf50000b003a00c6
:10a2200050ec2900104078008080fb001e01900057
:10a230003e0090000000400000004100010878004e
:10a2400090002000000f780037003700ce409000cb
:10a2500090c3b30080cf50000b003a0060ec29009f
:10a26000104078008080fb001e0190003e009000ae
:10a27000000040000000410001087800a00020001c
:10a28000000f780028003700ce409000d0c2b30005
:10a2900080cf50000b003a0070ec2900104078008d
:10a2a0008080fb001e0190003e00900000004000f6
:10a2b0000000410001087800b0002000000f780085
:10a2c00019003700ce409000d0c3b30080cf5000bb
:10a2d0000b003a0080ec2900104078008080fb00e1
:10a2e0001e0190003e009000000040000000410070
:10a2f00001087800c0002000000f78000a00370035
:10a30000c0eb2900104078008080fb001e01900007
:10a310003e0090000000400000004100010878006d
:10a320000000eb00000f78009e0078001e019000f6
:10a330003e0090007e004000000040000000410010
:10a34000010878000080fa00000006000800fa000a
:10a350001007980041479800320798000000eb0072
:10a36000000f78009e0090003e009000000040002a
:10a37000008040008000eb0001087800ce40900093
:10a3800010c4b30080cf50000a003a00c0f6840029
:10a39000800078001e0190003e0090000000400008
:10a3a00000004100010878000000eb00000f780079
:10a3b00039023700ce40900020c4b30080cf500057
:10a3c0000a003a00d0f68400800078001e01900058
:10a3d0003e009000000040000000410001087800ad
:10a3e00010002000000f78002b023700ce409000b4
:10a3f00030c4b30080cf50000a003a00e0f6840079
:10a40000800078001e0190003e0090000000400097
:10a41000000041000108780020002000000f7800b3
:10a420001d023700ce40900040c4b30080cf5000e2
:10a430000a003a00f0f68400800078001e019000c7
:10a440003e0090000000400000004100010878003c
:10a4500030002000000f78000f023700ce4090003f
:10a4600050c4b30080cf50000a003a0000f78400c7
:10a47000800078001e0190003e0090000000400027
:10a48000000041000108780040002000000f780023
:10a4900001023700ce40900060c4b30080cf50006e
:10a4a0000a003a0010f78400800078001e01900036
:10a4b0003e009000000040000000410001087800cc
:10a4c00050002000000f7800f3013700ce409000cc
:10a4d00070c4b30080cf50000a003a0020f7840017
:10a4e000800078001e0190003e00900000004000b7
:10a4f000000041000108780060002000000f780093
:10a50000e5013700ce40900080c4b30080cf5000fa
:10a510000a003a0030f78400800078001e019000a5
:10a520003e0090000000400000004100010878005b
:10a5300070002000000f7800d7013700ce40900057
:10a5400090c4b30080cf50000a003a0040f7840066
:10a55000800078001e0190003e0090000000400046
:10a56000000041000108780080002000000f780002
:10a57000c9013700ce409000a0c4b30080cf500086
:10a580000a003a0050f78400800078001e01900015
:10a590003e009000000040000000410001087800eb
:10a5a00090002000000f7800bb013700ce409000e3
:10a5b000b0c4b30080cf50000a003a0060f78400b6
:10a5c000800078001e0190003e00900000004000d6
:10a5d0000000410001087800a0002000000f780072
:10a5e000ad013700ce409000c0c4b30080cf500012
:10a5f0000a003a0070f78400800078001e01900085
:10a600003e0090000000400000004100010878007a
:10a61000b0002000000f78009f013700ce4090006e
:10a62000d0c4b30080cf50000a003a0080f7840005
:10a63000800078001e0190003e0090000000400065
:10a640000000410001087800c0002000000f7800e1
:10a6500091013700ce409000e0c4b30080cf50009d
:10a660000a003a0090f78400800078001e019000f4
:10a670003e0090000000400000004100010878000a
:10a68000d0002000000f780083013700ce409000fa
:10a69000f0c4b30080cf50000a003a00a0f7840055
:10a6a000800078001e0190003e00900000004000f5
:10a6b0000000410001087800e0002000000f780051
:10a6c00075013700ce40900000c5b30080cf500028
:10a6d0000a003a00b0f78400800078001e01900064
:10a6e0003e0090000000400000004100010878009a
:10a6f000f0002000000f780067013700ce40900086
:10a7000010c5b30080cf50000a003a00c0f78400a3
:10a71000800078001e0190003e0090000000400084
:10a72000000041000108780000012000000f7800bf
:10a7300059013700ce40900020c5b30080cf5000b3
:10a740000a003a00d0f78400800078001e019000d3
:10a750003e00900000004000000041000108780029
:10a7600010012000000f78004b013700ce40900010
:10a7700030c5b30080cf50000a003a00e0f78400f3
:10a78000800078001e0190003e0090000000400014
:10a79000000041000108780020012000000f78002f
:10a7a0003d013700ce40900040c5b30080cf50003f
:10a7b0000a003a00f0f78400800078001e01900043
:10a7c0003e009000000040000000410001087800b9
:10a7d00030012000000f78002f013700ce4090009c
:10a7e00050c5b30080cf50000a003a0000f8840042
:10a7f000800078001e0190003e00900000004000a4
:10a80000000041000108780040012000000f78009e
:10a8100021013700ce40900060c5b30080cf5000ca
:10a820000a003a0010f88400800078001e019000b1
:10a830003e00900000004000000041000108780048
:10a8400050012000000f780013013700ce40900027
:10a8500070c5b30080cf50000a003a0020f8840091
:10a86000800078001e0190003e0090000000400033
:10a87000000041000108780060012000000f78000e
:10a8800005013700ce40900080c5b30080cf500056
:10a890000a003a0030f88400800078001e01900021
:10a8a0003e009000000040000000410001087800d8
:10a8b00070012000000f7800f7003700ce409000b4
:10a8c00090c5b30080cf50000a003a0040f88400e1
:10a8d000800078001e0190003e00900000004000c3
:10a8e000000041000108780080012000000f78007e
:10a8f000e9003700ce409000a0c5b30080cf5000e3
:10a900000a003a0050f88400800078001e01900090
:10a910003e00900000004000000041000108780067
:10a9200090012000000f7800db003700ce4090003f
:10a9300000c3b30080cf50000a003a0060f88400e2
:10a94000800078001e0190003e0090000000400052
:10a950000000410001087800a0012000000f7800ed
:10a96000cd003700ce40900010c3b30080cf500020
:10a970000a003a0070f88400800078001e01900000
:10a980003e009000000040000000410001087800f7
:10a99000b0012000000f7800bf003700ce409000cb
:10a9a00020c3b30080cf50000a003a0080f8840032
:10a9b000800078001e0190003e00900000004000e2
:10a9c0000000410001087800c0012000000f78005d
:10a9d000b1003700ce40900030c3b30080cf5000ac
:10a9e0000a003a0090f88400800078001e01900070
:10a9f0003e00900000004000000041000108780087
:10aa0000d0012000000f7800a3003700ce40900056
:10aa100040c3b30080cf50000a003a00a0f8840081
:10aa2000800078001e0190003e0090000000400071
:10aa30000000410001087800e0012000000f7800cc
:10aa400095003700ce40900050c3b30080cf500037
:10aa50000a003a00b0f88400800078001e019000df
:10aa60003e00900000004000000041000108780016
:10aa7000f0012000000f780087003700ce409000e2
:10aa800060c3b30080cf50000a003a00c0f88400d1
:10aa9000800078001e0190003e0090000000400001
:10aaa000000041000108780000022000000f78003b
:10aab00079003700ce40900070c3b30080cf5000c3
:10aac0000a003a00d0f88400800078001e0190004f
:10aad0003e009000000040000000410001087800a6
:10aae00010022000000f78006b003700ce4090006d
:10aaf00080c3b30080cf50000a003a00e0f8840021
:10ab0000800078001e0190003e0090000000400090
:10ab1000000041000108780020022000000f7800aa
:10ab20005d003700ce40900090c3b30080cf50004e
:10ab30000a003a00f0f88400800078001e019000be
:10ab40003e00900000004000000041000108780035
:10ab500030022000000f78004f003700ce409000f8
:10ab6000d0c2b30080cf50000a003a0000f9840040
:10ab7000800078001e0190003e0090000000400020
:10ab8000000041000108780040022000000f78001a
:10ab900041003700ce409000b0c2b30080cf5000db
:10aba0000a003a0010f98400800078001e0190002d
:10abb0003e009000000040000000410001087800c5
:10abc00050022000000f780033003700ce40900084
:10abd000a0c2b30080cf50000a003a0020f98400e0
:10abe000800078001e0190003e00900000004000b0
:10abf000000041000108780060022000000f78008a
:10ac000025003700ce409000f0c2b30080cf500046
:10ac10000a003a0030f98400800078001e0190009c
:10ac20003e00900000004000000041000108780054
:10ac300070022000000f780017003700ce4090000f
:10ac4000d0c3b30080cf50000a003a0040f984001e
:10ac5000800078001e0190003e009000000040003f
:10ac6000000041000108780080022000000f7800f9
:10ac70000900370050f98400800078001e01900020
:10ac80003e009000000040000000410001087800f4
:10ac900090022000000f78009e0078001e019000b6
:10aca0003e0090007e004000000040000000410097
:10acb000010878000080fa00000006000000fa0099
:10acc0008805a8008825a8008845a8008865a800f0
:10acd0008885a80088a5a80088c5a80088e5a800e0
:10ace0008905a8008925a8008945a8008965a800cc
:10acf0008985a80089a5a80089c5a80089e5a800bc
:10ad00008a05a8008a25a8008a45a8008a65a800a7
:10ad10008a85a8008aa5a8008ac5a8008ae5a80097
:10ad20008b05a8008b25a8008b45a8008b65a80083
:10ad30008b85a8008ba5a8008bc5a8008be5a80073
:10ad40008c05a8008c25a8008c45a8008c65a8005f
:10ad50008c85a8008ca5a8008cc5a8008ce5a8004f
:10ad60008d05a8008d25a8008d45a8008d65a8003b
:10ad70008d85a8008da5a8008dc5a8008de5a8002b
:10ad80008e05a8008e25a8008e45a8008e65a80017
:10ad90008e85a8008ea5a8008ec5a8008ee5a80007
:10ada0008f05a8008f25a8008f45a8008f65a800f3
:10adb0008f85a8008fa5a8008fc5a8008fe5a800e3
:10adc0000080fa00000006000a00fa003007980030
:10add000410798000000eb00000f78000000eb0036
:10ade000100798004e009000e3e00700200798004d
:10adf0002e009000eb0f500002003400b000200045
:10ae0000200798000000eb00000f780028003700b2
:10ae10001e009000e50f500014003c001e0078005a
:10ae2000ce0090000080400090407800e0c2b30067
:10ae300080cf50000d0032001e009000eb0010008b
:10ae40001e0078004e019000000041001040780084
:10ae500001017800804078003e0090003bfd070033
:10ae60001e0090000000e800100798001e00780007
:10ae70000000e900ce009000008040009040780083
:10ae8000e0c2b30080cf500008003a001e009000de
:10ae90006c001000be0090000000400000804000e8
:10aea0009000780001e0a000010878001e0fe80083
:10aeb0002e0090009e007800808f5000d4ff350057
:10aec0000080fa00000006000a00fa00300798002f
:10aed000410798000000eb00000f780010002000f0
:10aee000100798004e009000a3e00700200798008c
:10aef0002e009000e90f5000020034009000200066
:10af0000200798000000eb00000f78002a003700af
:10af10001e009000e50f500012003c001e0078005b
:10af2000ce0090000080400090407800e0c2b30066
:10af300080cf50000b0032001e007800ce00900041
:10af400000804000104078001e0190008040780092
:10af50003e0090002afc07001e0090000000e80060
:10af6000100798001e0078000000e900ce00900055
:10af70000080400090407800e0c2b30080cf5000d5
:10af80000c003a003e00900000389000e10f5000a5
:10af9000080032001e0090000000e900be00900092
:10afa0000000400000804000900078000170a00088
:10afb000010878001e0fe8002e0090009e00780027
:10afc000808f5000d2ff35000080fa00000006009c
:10afd0000e00fa0040079800510798006207980099
:10afe0000000eb00000f7800c00020001007980060
:10aff0005e00900060e00700200798006e0090005f
:10b000005de00700300798002e009000e70f500029
:10b010000200340070002000200798003e009000dd
:10b02000e90f500002003400900020003007980023
:10b030004e00900031002000211898000000eb0025
:10b04000000f7800260037001e009000ef0f500020
:10b0500012003c001e007800de00900000804000de
:10b0600090407800e0c2b30080cf50000b00320067
:10b070001e007800de009000008040001040780044
:10b080001e019000804078004e009000dcfb07001d
:10b090001e0090000000e800100798001e007800d5
:10b0a0000000e900de009000008040009040780041
:10b0b000e0c2b30080cf500008003a001e009000ac
:10b0c0000000e900ce009000000040000080400039
:10b0d000900078000170a000010878001e0fe800c1
:10b0e0002e0090009e007800808f5000d6ff350023
:10b0f00000012000100798000000eb00000f78000e
:10b10000260037001e009000f40f500012003c0093
:10b110001e007800ee009000008040009040780013
:10b12000e0c2b30080cf50000b0032001e00780058
:10b13000ee00900000804000104078001e0190005a
:10b14000804078004e009000adfb07001e0090008c
:10b150000000e800100798001e0078000000e900d9
:10b16000ee0090000080400090407800e0c2b30004
:10b1700080cf500008003a001e0090000000e90057
:10b18000ce00900000004000008040009000780059
:10b190000170a000010878001e0fe8003e0090003a
:10b1a0009e007800808f5000d6ff35000080fa00a6
:10b1b000000006000600fa00881f7800000f7800e3
:10b1c00012079800230798001e0078008000eb000b
:10b1d000511098001e0078008000eb00611098006c
